:10000000BFC00000D8C00000D6C00000D4C00000AF
:10001000D2C00000D0C00000CEC00000CCC00000A4
:10002000CAC00000C8C0000066C20000BEC2000016
:10003000C2C00000C0C00000BEC00000BCC00000C4
:10004000BAC00000B8C00000B6C00000B4C00000D4
:10005000B2C00000B0C00000AEC00000ACC00000E4
:10006000AAC00000A8C00000A6C00000A4C00000F4
:10007000A2C00000A0C000009EC000009CC0000004
:100080009AC0000098C0000096C0000094C0000014
:1000900092C0000090C000008EC000008CC0000024
:1000A0008AC0000088C0000086C000000001000077
:1000B000E3001200020000F50022002200001701F8
:1000C0003F00210000070109000300005601040160
:1000D0000309045A0110020309046C011200000113
:1000E000C106001201000200000020C0167C0400BE
:1000F000010102000109022200010100C0320904CD
:1001000000000103010100092111010001223F004B
:100110000705830308000105010906A10175019582
:1001200008050719E029E7150025018102950175E9
:1001300008810395057501050819012905910295A6
:1001400001750391039506750815002568050719C3
:100150000029688100C00403090410034D006600F3
:1001600067004E0061006D006500000012034B0047
:100170006500790062006F00610072006400000099
:1001800011241FBECFEFDAE0DEBFCDBF12E0A0E04A
:10019000B1E0E8E7F8E002C005900D92A23BB1079C
:1001A000D9F713E0A2EBB2E001C01D92AE34B10763
:1001B000E1F791D05FC324CFCF93DF9390910701F4
:1001C00020910801A0E0B1E0C4EBD2E08D918F3F17
:1001D00041F0E92FF22FE80FF11DE80FF11D8081AA
:1001E00001C080E0899381E0A630B80779F780915B
:1001F000B2028093BA02DF91CF9145C1282F30E03F
:10020000F901E254FD4F91E09083220F331FE091FA
:100210000701F0910801E20FF31F91819130B9F0CD
:100220009091040190930501909103019093040132
:10023000909102019093030190910101909302012A
:1002400090910001909301018093000106C080917C
:10025000B2029081892B8093B202AECF282F30E07A
:10026000F901E254FD4F1082220F331FE091070184
:10027000F0910801E20FF31F9181913041F49081D8
:1002800090958091B20289238093B20213C0E0E07E
:10029000F1E090E02191281759F09F5F9630D1F757
:1002A00007C0E92FF0E0E050FF4F818180839F5F1E
:1002B0009630B8F381CFCDD0E3D08823E9F38FD047
:1002C0001092B202EEEBF2E0119283E0EE34F80706
:1002D000D9F778940895CF93DF93CDB7DEB7C0599F
:1002E000D1090FB6F894DEBF0FBECDBFE4DFFE012B
:1002F0003196CE018F569F4F1192E817F907E1F71B
:10030000E12C10E036C0812F3CD000E0F02EFE0C36
:10031000802F47D0D82E882361F0E1E0F0E0EC0F89
:10032000FD1FEF0DF11D8081811103C08F2D66DF50
:100330000DC0E1E0F0E0EC0FFD1FEF0DF11D80813D
:10034000882351F0D11008C08F2D88DF8FE19EE403
:100350000197F1F700C00000E1E0F0E0EC0FFD1FB5
:10036000EF0DF11DD0820F5F023181F692E1E90EAF
:100370001F5F183040F28091B30222D0E12C10E0D0
:10038000C2CF95B1917F95B995B1E82FF0E0E55DC9
:10039000FD4F8081982B95B985E08A95F1F7000093
:1003A000089590E0FC01EE0FFF1FEB5BFD4FA08175
:1003B000B181FC01ED5CFD4F9C9180818923089502
:1003C00025B190E08095909534E0880F991F3A957B
:1003D000E1F7807699272F79282B25B90895CF93B7
:1003E000DF9380E8809361001092610085B7806898
:1003F00085BF85B7806885BF84B18E6084B985B1BB
:10040000817F85B9EDE8F2E083E392E0C9E6D2E0CE
:1004100041915191DC012D91CD012095DA013C9162
:1004200032233C93A991B9913C9132233C93B2E0A1
:10043000E13BFB0769F784B1806684B985B18066CA
:1004400085B9DF91CF9108958091E80080FFFCCFBE
:10045000089581E08093D70080EA8093D80082E1FC
:1004600089BD09B400FEFDCF80E98093D8001092C9
:10047000E0001092BB028CE08093E2007894089533
:100480008091BB0208958091BB02811102C08FEF61
:1004900008958FB7F89493E09093E9009091E40069
:1004A0009E5C23E03091E80035FD0EC08FBF809147
:1004B000BB02882361F38091E400891741F38FB771
:1004C000F8942093E900EECF9091BA029093F10056
:1004D0001092F100E4EBF2E091919093F10092E040
:1004E000EA3BF907C9F79AE39093E8001092BC023F
:1004F0008FBF80E008951F920F920FB60F921124C4
:100500008F939F93EF93FF938091E1001092E1000E
:1005100083FF0FC01092E90091E09093EB001092DE
:10052000EC0092E29093ED0098E09093F00010922E
:10053000BB0282FF31C08091BB02882369F1909198
:100540002902992349F18091BD028F5F8093BD02FA
:10055000837011F583E08093E9008091E80085FFC6
:100560001BC08091BC028F5F8093BC02891314C0B2
:100570001092BC028091BA028093F1001092F100B7
:10058000E4EBF2E081918093F10082E0EA3BF8072E
:10059000C9F78AE38093E800FF91EF919F918F91D3
:1005A0000F900FBE0F901F9018951F920F920FB6CD
:1005B0000F921124EF92FF920F931F932F933F936B
:1005C0004F935F936F937F938F939F93AF93BF935B
:1005D000EF93FF93CF93DF931F92CDB7DEB71092C7
:1005E000E9008091E80083FF2AC19091F100809199
:1005F000F1002091F1003091F100F32EE12CE22A7C
:100600002091F1003091F100132F00E0022B609156
:10061000F1007091F10022EF2093E800863009F09C
:100620004DC047E08CEA90E0FC01259134912E15F5
:100630003F0509F007C0FC0132962591349120173F
:10064000310711F0079615C0FC013496459154917D
:100650009A01FC0136968491572F40E0462B4F3F7C
:10066000510519F010F04FEF50E0481728F4842F8F
:1006700003C04150C9F6E3C07EEF9091E800492FD6
:100680004570D9F392FDDEC0982F813208F090E2D8
:10069000A901692F07C0FA014F5F5F4FE491E09312
:1006A000F10061506111F7CF290F311D891B709343
:1006B000E8008111E2CF903201F3C4C0853049F4E3
:1006C0008EEF8093E800C0DE6894E7F8E092E300E4
:1006D000B9C0893041F591116DC0E092BB028EEF37
:1006E0008093E80041E08DED90E001C0C9014093A6
:1006F000E9009C012F5F3F4FFC0154915093EB00A8
:10070000552361F0F90124912093EC009C012D5FA9
:100710003F4FFC01329684918093ED004F5F45304E
:1007200029F78EE142C0883039F4903809F042C090
:100730008BDE8091BB0261C0811115C0998384DE7C
:100740009981923851F40093E9008091EB0085FB88
:10075000882780F91092E90001C080E08093F100C1
:100760001092F10063C0813011F0833019F592309E
:1007700009F5EF2809F063C00F771127902F9150EA
:10078000943008F05CC09EEF9093E8000093E9007D
:10079000833009F454C089E18093EB0081E090E05C
:1007A000002E01C0880F0A94EAF78093EA001092A5
:1007B000EA0048C0012B09F042C0913A09F58130A6
:1007C00089F442DE8091BA028093F1001092F10028
:1007D000E4EBF2E081918093F10032E0EA3BF30731
:1007E000C9F724C0823021F42FDE8091290205C090
:1007F000833029F529DE80912A028093F10016C00A
:100800009132E9F4893061F48091E80082FFFCCFF5
:100810008091F1008093B3028BEF8093E80006C0D3
:100820008A3041F4F09229021092BC028EEF80933C
:10083000E80008C08B3019F4E0922A02F7CF81E279
:100840008093EB000F90DF91CF91FF91EF91BF91DB
:10085000AF919F918F917F916F915F914F913F9158
:100860002F911F910F91FF90EF900F900FBE0F905F
:080870001F901895F894FFCFCA
:10087800FFFFFFFFFFFFFF0901190000000000282C
:100888000000000000330014000E000D0010001AD4
:10089800000000000010010000000000000000043B
:1008A800012D00440000000000290064000C003DF8
:1008B8000007003F000000520000002C000000006C
:1008C80000650040011D0045000000000000000018
:1008D800001B00000005000000000050000000514F
:1008E800004F000000150047000F00000000000046
:1008F8000034003600130037000A0006000000002C
:10090800004800000000000000110000001600313F
:10091800000000200104001200180008000B001756
:1009280000000000000000000000008001260046D2
:100938000027004300000000001E001F00210020C7
:1009480000240025004E004D003E0000000000007D
:10095800004000000038002A00080102012B00397D
:10096800001C003C0009002E0000000000000000F0
:100978000000000000410000002F004200000000BD
:100988000035003A0022003B00230030004B004AAB
:100998000001014C00490000007D01000204060826
:1009A8000A0C0E10804080010204081020408001CB
:1009B8000210204080230023002600260029002959
:1009C800002900290029002900290029002F002FCB
:1009D800002F002F002F002F0025002500280028B9
:1009E800002B002B002B002B002B002B002B002BA7
:1009F8000031003100310031003100310024002481
:100A080000270027002A002A002A002A002A002A94
:100A1800002A002A0030003000300030003000305A
:020A28000000CC
:00000001FF
