:10000000DEC00000F7C00000F5C00000F3C0000033
:10001000F1C00000EFC00000EDC00000EBC0000028
:10002000E9C00000E7C00000AFC200001EC300002E
:10003000E1C00000DFC00000DDC00000DBC0000048
:10004000D9C00000D7C00000D5C00000D3C0000058
:10005000D1C0000044C10000CDC00000CBC00000F2
:10006000C9C00000C7C00000C5C00000C3C0000078
:10007000C1C00000BFC00000BDC00000BBC0000088
:10008000B9C00000B7C00000B5C00000B3C0000098
:10009000B1C00000AFC00000ADC00000ABC00000A8
:1000A000A9C00000A7C00000A5C00000000100001A
:1000B000F300120002000005013B00220000400195
:1000C0003F00210000170109002201007F011500F7
:1000D000210100300109000300009401040103091B
:1000E0000498011002030904AA0112000001C106CC
:1000F00001C1261201000200000020C0167D04008C
:10010000010102000109023B00020100C0320904A2
:1001100000000103010100092111010001223F003B
:100120000705830308000109040100010300000022
:100130000921110100012215000705840320000197
:1001400005010906A10175019508050719E029E7D0
:10015000150025018102950175088103950575013A
:10016000050819012905910295017503910395066A
:100170007508150025680507190029688100C00663
:1001800031FF0974A1537508150026FF0095200959
:10019000758102C00403090410034D006600670066
:1001A0004E0061006D006500000012034B00650009
:1001B000790062006F006100720064000000112489
:1001C0001FBECFEFDAE0DEBFCDBF12E0A0E0B1E0AE
:1001D000ECE8F9E002C005900D92A836B107D9F716
:1001E00013E0A8E6B2E001C01D92A739B107E1F71C
:1001F000FED0CAC305CFCF93DF93A0E0B1E0CBE63A
:10020000D2E0ED91EF3F39F0F0E0EE0FFF1FE95F34
:10021000FE4F818101C080E0899381E0A630B8075C
:1002200081F78091690280937102DF91CF9174C14F
:10023000282F30E0220F331FF901E958FD4F91E0DC
:100240009083F901E95FFE4F90819130B9F0909170
:100250000401909305019091030190930401909102
:1002600002019093030190910101909302019091FA
:100270000001909301018093000106C08091690202
:100280009181892B80936902B6CF282F30E0220F0D
:10029000331FF901E958FD4F1082F901E95FFE4F64
:1002A0009081913041F491819095809169028923E8
:1002B0008093690213C0E0E0F1E090E021912817FB
:1002C00059F09F5F9630D1F707C0E92FF0E0E0507A
:1002D000FF4F818180839F5F9630B8F38CCF1F9250
:1002E0000F920FB60F9211249F92AF92BF92CF92AE
:1002F000DF92EF92FF920F931F932F933F934F93B1
:100300005F936F937F938F939F93AF93BF93CF939D
:10031000DF93EF93FF93DBD0C12CB12C8B2D6AD0F0
:10032000D12CAD2CAC0C0A2D10E07801EE0CFF1C8A
:10033000E701C958DD4F99808D2D6CD089298983BB
:100340008F3729F48881811102C08A2D71DFF7016E
:10035000E958FD4F8181803829F48081882311F08C
:100360008A2D93DFF801EE0FFF1FE958FD4F8181C1
:10037000880F8183D39482E1D812D3CFC80EB3946F
:1003800080E9C812CBCF80916A0255D09AD0FF91F4
:10039000EF91DF91CF91BF91AF919F918F917F911D
:1003A0006F915F914F913F912F911F910F91FF900E
:1003B000EF90DF90CF90BF90AF909F900F900FBEC7
:1003C0000F901F9018958ED0A4D08823E9F34BD0BE
:1003D00010926902E8E7F2E0DF0111971C921082A7
:1003E000329683E0E839F807B9F778940895EBDF9F
:1003F00068D0FFCF95B1917F95B995B1E82FF0E026
:10040000E15AFD4F8081982B95B985E08A95F1F7E7
:100410000000089590E0FC01EE0FFF1FE80FF91FA8
:10042000E95DFD4FA081B1819C918281982381E09B
:1004300009F480E0089525B190E08095909534E02E
:10044000880F991F3A95E1F7807699272F79282B05
:1004500025B9089584B5826084BD85B5856085BD64
:1004600080E187BD0895E1E6F0E080E880831082B6
:1004700085B7806885BF85B7806885BF84B18E6089
:1004800084B985B1817F85B984B18F7684B985B10E
:100490008F7685B987B18F7387B988B18F7388B923
:1004A0008AB11AB88BB11BB880B3807380BB81B39B
:1004B000807381BB84B1806684B985B1806685B95B
:1004C000C9CFEEE6F0E08081826080830895EEE699
:1004D000F0E080818D7F808308958091E80080FF27
:1004E000FCCF089581E08093D70080EA8093D80004
:1004F00082E189BD09B400FEFDCF80E98093D80078
:100500001092E000109273028CE08093E2007894E5
:10051000089580917302089580917302811102C041
:100520008FEF08958FB7F89493E09093E90090913E
:10053000E4009E5C23E03091E80035FD0EC08FBFE3
:1005400080917302882361F38091E400891741F35D
:100550008FB7F8942093E900EECF909171029093B9
:10056000F1001092F100EBE6F2E091919093F1002E
:1005700092E0E137F907C9F79AE39093E800109207
:1005800074028FBF80E008951F920F920FB60F92F2
:1005900011248F939F93EF93FF938091E10010922A
:1005A000E10083FF0FC01092E90091E09093EB000F
:1005B0001092EC0092E29093ED0098E09093F0009E
:1005C0001092730282FF48C080917302882309F45D
:1005D00043C080917202882391F08150809372020F
:1005E00081110DC084E08093E90002C01092F100F7
:1005F0008091E80085FDFACF8AE38093E80090912E
:100600005D02992349F1809176028F5F8093760293
:10061000837011F583E08093E9008091E80085FF05
:100620001BC0809174028F5F80937402891314C081
:1006300010927402809171028093F1001092F10087
:10064000EBE6F2E081918093F10082E0E137F80778
:10065000C9F78AE38093E800FF91EF919F918F9112
:100660000F900FBE0F901F9018951F920F920FB60C
:100670000F921124EF92FF920F931F932F933F93AA
:100680004F935F936F937F938F939F93AF93BF939A
:10069000EF93FF93CF93DF931F92CDB7DEB7109206
:1006A000E9008091E80083FF4FC19091F1008091B3
:1006B000F1002091F1003091F100132F00E0022BA6
:1006C0002091F1003091F100F32EE12CE22A2091EB
:1006D000F1003091F100532F40E0422B22EF2093A4
:1006E000E800863009F04AC069E08CEA90E0FC013D
:1006F000259134912017310709F007C0FC0132968B
:10070000259134912E153F0511F0079612C0FC017A
:100710003496659174919B01FC01369684914F3F0C
:10072000510519F010F04FEF50E0481728F4842FCE
:1007300003C06150E1F608C17EEF9091E800492FB7
:100740004570D9F392FD08C1982F813208F090E2EC
:10075000A901692F07C0FA014F5F5F4FE491E09351
:10076000F10061506111F7CF290F311D891B709382
:10077000E8008111E2CF903201F3EEC0853041F400
:100780008EEF8093E800A9DE00680093E300E4C0E8
:10079000893041F591116EC0009373028EEF809302
:1007A000E80041E08BEE90E001C0C9014093E90010
:1007B0009C012F5F3F4FFC0154915093EB00552358
:1007C00061F0F90124912093EC009C012D5F3F4FD3
:1007D000FC01329684918093ED004F5F453029F7FC
:1007E0008EE143C0883039F4903809F043C075DE9B
:1007F0008091730264C0811115C099836EDE998166
:10080000923851F4E092E9008091EB0085FB882753
:1008100080F91092E90001C080E08093F10010920D
:10082000F1006CC0813011F0833021F5923011F568
:10083000012B09F08DC097012F773327622F61506C
:10084000643008F085C09EEF9093E8002093E900A3
:10085000833009F479C089E18093EB0081E090E076
:10086000022E01C0880F0A94EAF78093EA001092E2
:10087000EA0072C0E114F10409F044C0913A11F5A4
:10088000813089F42ADE809171028093F100109208
:10089000F100EBE6F2E081918093F10022E0E13794
:1008A000F207C9F72BC0823021F417DE80915D0278
:1008B00006C0833009F048C010DE80915E0280934C
:1008C000F1001CC0913209F03FC0893061F4809181
:1008D000E80082FFFCCF8091F10080936A028BEFE9
:1008E0008093E8000BC08A3029F410935D021092C7
:1008F000740204C08B3041F500935E028EEF80934A
:10090000E8002AC0EA94EF28F9F48130E9F4913A3A
:10091000D9F42EEF8091E800982F9570D9F382FDDD
:100920001BC0842F413208F080E2982F03C0109240
:10093000F10091509111FBCF481B2093E800411129
:10094000E9CF803239F308C081E28093EB0004C024
:10095000E114F104C9F3D6CF0F90DF91CF91FF914D
:10096000EF91BF91AF919F918F917F916F915F9127
:100970004F913F912F911F910F91FF90EF900F900A
:0C0980000FBE0F901F901895F894FFCF49
:10098C00FFFFFFFFFFFFFF00370000000000280003
:10099C00000000001D001B001900060010003600AE
:1009AC000000000110000000000000000001040025
:1009BC003400440000000000290064000A003D00DF
:1009CC000B003F000000520000002C000000000053
:1009DC0065014000380045000000000000000000E8
:1009EC000500000011000000000050000000510044
:1009FC004F00000012004700130000000000000030
:100A0C0014001A001500080018000C00000000006B
:100A1C0048000000000000000F000000330031000F
:100A2C000001200004001600090007000D000E0054
:100A3C0000000000000000000001800026004600BD
:100A4C0027004300000000001E001F0021002000B2
:100A5C00240025004E004D003E0000000000000068
:100A6C00400000002F002A01080102002B00390071
:100A7C0017003C001C0030000000000000000000CB
:100A8C0000000000410000002D00420000000000AA
:100A9C0035003A0022003B0023002E004B004A0197
:100AAC0001004C0049000023001023008026004068
:100ABC0026008029000129000229000429000829A8
:100ACC0000102900202900402900802F00012F0050
:100ADC00022F00102F00202F00402F00807D0100DE
:080AEC00020406080A0C0E00CA
:00000001FF
