:1000000010C1000029C1000027C1000025C1000067
:1000100023C1000021C100001FC100001DC100005C
:100020001BC1000019C10000F7C2000069C3000035
:1000300013C1000011C100000FC100000DC100007C
:100040000BC1000009C1000007C1000005C100008C
:1000500003C100007BC10000FFC00000FDC0000024
:10006000FBC00000F9C00000F7C00000F5C00000B0
:10007000F3C00000F1C00000EFC00000EDC00000C0
:10008000EBC00000E9C00000E7C00000E5C00000D0
:10009000E3C00000E1C00000DFC00000DDC00000E0
:1000A000DBC00000D9C00000D7C000000001000084
:1000B000F300120002000005013B00220000400195
:1000C0003F00210000170109002201007F011500F7
:1000D000210100300109000300009401040103091B
:1000E0000498014E02030904E80138000001C1062A
:1000F00001C1261201000200000020C0167D04008C
:10010000010102000109023B00020100C0320904A2
:1001100000000103010100092111010001223F003B
:100120000705830308000109040100010300000022
:100130000921110100012215000705840320000197
:1001400005010906A10175019508050719E029E7D0
:10015000150025018102950175088103950575013A
:10016000050819012905910295017503910395066A
:100170007508150025680507190029688100C00663
:1001800031FF0974A1537508150026FF0095200959
:10019000758102C0040309044E034200610074002B
:1001A000680072006F006F006D0020004500700055
:1001B00069007000680061006E00690065007300EE
:1001C0002C002000730069006D0070006C00650059
:1001D0005F006B006500790062006F0061007200D3
:1001E000640020002D0000003803460069006C0008
:1001F00063006F0020004D0061006A00650073001D
:1002000074006F00750063006800200054006500F2
:100210006E006B00650079006C0065007300730070
:10022000000011241FBECFEFDAE0DEBFCDBF12E029
:10023000A0E0B1E0E6E8FAE002C005900D92A83631
:10024000B107D9F713E0A8E6B2E001C01D92A739C3
:10025000B107E1F70CD115C4D3CECF93DF93A0E063
:10026000B1E0CBE6D2E00BC0F0E0EE0FFF1FE95F9C
:10027000FE4F8181899381E0A630B80749F0ED9166
:10028000EF3F91F780E0899381E0A630B807B9F796
:100290008091690280937102DF91CF9177C1282FFD
:1002A00030E0220F331FF901E958FD4F91E09083B0
:1002B000F901E95FFE4F90819130B9F0909104010E
:1002C0009093050190910301909304019091020194
:1002D000909303019091010190930201909100018C
:1002E0009093010180930001B8CF809169029181C0
:1002F000892B80936902B1CF282F30E0220F331F62
:10030000F901E958FD4F1082F901E95FFE4F908134
:100310009130A1F0E0E0F1E090E02191281721F088
:100320009F5F9630D1F799CFE92FF0E0E050FF4F73
:10033000818180839F5F9630B9F7F5CF9181909549
:100340008091690289238093690287CF1F920F925F
:100350000FB60F921124BF92CF92DF92EF92FF92CD
:100360000F931F932F933F934F935F936F937F93BD
:100370008F939F93AF93BF93CF93DF93EF93FF93AD
:10038000E5D0C12CB12C8B2D75D0F12C0AC0803852
:1003900019F1C958DD4F880F8983F394F2E1FF16F4
:1003A00071F1EF2CEC0CCE2DD0E0CC0FDD1F8E01C7
:1003B00009581D4FF801D1808F2D6BD08D29F80180
:1003C00081838F3721F790819111E3CF8E2D67DFE5
:1003D000F80181818038E9F68E0109581D4FF80136
:1003E00090819923B1F28E2D87DFF8018181C95860
:1003F000DD4F880F8983F394F2E1FF12D2CFCF0E45
:10040000B39480E9C812BFCF43D080916A0252D022
:1004100097D0FF91EF91DF91CF91BF91AF919F91D5
:100420008F917F916F915F914F913F912F911F918C
:100430000F91FF90EF90DF90CF90BF900F900FBE85
:100440000F901F90189588D09ED08823E9F342D052
:1004500010926902E8E7F2E0DF0111971C92108226
:10046000329683E0E839F807B9F778940895EBDF1E
:1004700067D0FFCF95B1E82FF0E0E15AFD4F917FB3
:100480008081982B95B985E08A95F1F70000089551
:10049000089590E0FC01EE0FFF1FE80FF91FE95DE2
:1004A000FD4FA081B1819C918281982381E009F464
:1004B00080E0089525B190E0809590958295929581
:1004C000907F9827807F9827807699272F79282BEF
:1004D00025B90895E1E6F0E080E88083108285B7D1
:1004E000806885BF85B7806885BF84B18E6084B918
:1004F00085B1817F85B984B18F7684B985B18F76D6
:1005000085B987B18F7387B988B18F7388B98AB17C
:100510001AB88BB11BB880B3807380BB81B3807372
:1005200081BB84B1806684B985B1806685B984B5A4
:10053000826084BD85B5856085BD80E187BD0895F5
:10054000EEE6F0E08081826080830895EEE6F0E0E0
:1005500080818D7F8083089581E08093D70080EA39
:100560008093D80082E189BD09B400FEFDCF80E907
:100570008093D8001092E000109273028CE0809378
:10058000E200789408958091730208958091730237
:10059000882309F43FC08FB7F89493E09093E90063
:1005A0002091E4002E5C9091E80095FD1CC08FBF67
:1005B00080917302882371F18091E400821751F1D8
:1005C00033E009C08FBF80917302882319F18091B5
:1005D000E4008217F9F08FB7F8943093E900909116
:1005E000E80095FFEFCF909171029093F100109287
:1005F000F100EBE6F2E091919093F10092E0E137A7
:10060000F907C9F79AE39093E800109274028FBF3C
:1006100080E008958FEF08951F920F920FB60F920A
:1006200011248F939F93EF93FF938091E100109299
:10063000E10083FF0FC01092E90091E09093EB007E
:100640001092EC0092E29093ED0098E09093F0000D
:100650001092730282FF36C080917302882391F159
:10066000809172028823A9F08150809372028111D7
:1006700010C084E08093E9008091E80085FF06C007
:100680001092F1008091E80085FDFACF8AE3809313
:10069000E80090915D029923A9F0809176028F5F26
:1006A00080937602837071F483E08093E9008091F7
:1006B000E80085FF07C0809174028F5F8093740209
:1006C000891749F0FF91EF919F918F910F900FBE85
:1006D0000F901F9018951092740280917102809370
:1006E000F1001092F100EBE6F2E081918093F100CD
:1006F00082E0E137F807C9F78AE38093E800E2CFA8
:100700001F920F920FB60F9211242F933F934F9386
:100710005F936F937F938F939F93AF93BF93CF9389
:10072000EF93FF931092E9008091E80083FF3CC0B3
:10073000F091F100E091F1002091F1003091F10091
:10074000932F80E0AC01422B2091F1003091F10019
:10075000932F80E0BC01622B2091F1003091F100D9
:10076000932F80E0DC01A22B82EF8093E800E6303B
:1007700081F1E53009F4BEC0E93009F472C0E83017
:1007800009F498C0E111C1C08091E80080FFFCCF5E
:10079000F23809F440C180E08093F1001092F1003A
:1007A0008EEF8093E80003C081E28093EB00FF911D
:1007B000EF91CF91BF91AF919F918F917F916F9169
:1007C0005F914F913F912F910F900FBE0F901F900F
:1007D0001895C9E08CEA90E003C00796C15021F358
:1007E000FC012591349142175307B9F7FC01329669
:1007F000259134916217730781F7FC013496459176
:1008000054919A01FC0136965491AF3FB10511F015
:1008100008F0BAC0A51708F4B5C07EEF9091E800C3
:10082000492F4570D9F392FDC2CF652F513208F49C
:100830005CC060E2C901462FFC010196E491E0939F
:10084000F1004150C9F7862F815090E00196280FA2
:10085000391F561B7093E8005111E0CF6032F1F25E
:10086000A6CFF1112AC0409373028EEF8093E80067
:1008700041E08BEE90E04093E9009C012F5F3F4FF9
:10088000FC0154915093EB00552309F4C2C0F901C7
:1008900024912093EC00FC0132960396E491E093BE
:1008A000ED004F5F453039F78EE18093EA001092FA
:1008B000EA007DCFF03809F459C06115710591F552
:1008C000F13A09F473C0F13209F06ECFE93009F45E
:1008D0005EC0EA3009F4CDC0EB3009F065CF40933B
:1008E0005E028EEF8093E80062CF5111A3CF709328
:1008F000E8005DCF8EEF8093E8008091E80080FFF4
:10090000FCCF40684093E30052CFE13011F0E33078
:10091000A1F6F23091F6452B09F48CC061157105F2
:1009200009F442CF6130710509F03ECFE13009F0A2
:100930003BCFF13A09F038CF2EEF8091E800982FA5
:100940009570D9F382FD33CF9A2FA13208F46DC090
:1009500090E2892F1092F1008150E1F7A91B2093BA
:10096000E800A111EACF903241F321CF8091E80055
:1009700080FFFCCF809173028093F1008EEF809313
:10098000E80015CF5A2F49CFAFEFB0E043CF8091A9
:10099000E80082FFFCCF8091F10080936A028BEF28
:1009A0008093E8008EEF8093E80001CFE13089F07A
:1009B000E23019F1E33009F0F7CE8091E80080FFD2
:1009C000FCCF80915E028093F1008EEF8093E8006F
:1009D000EECE8091E80080FFFCCF80917102809381
:1009E000F1001092F100EBE6F2E081918093F100CA
:1009F00082E0E137F807C9F774CF8091E80080FF03
:100A0000FCCF80915D028093F1008EEF8093E8002F
:100A1000CECEC90146CF6093E9008091EB0085FB03
:100A2000882780F91092E900B7CEA11192CF2093C8
:100A3000E800BDCE9B012F773327822F8150843071
:100A400008F06CCF8EEF8093E8002093E900E3304C
:100A500009F4AACE89E18093EB0081E090E0022EB8
:100A600001C0880F0A94EAF78093EA001092EA0026
:100A70009ECE50935D02109274028EEF8093E80038
:060A800096CEF894FFCFB2
:100A8600FFFFFFFFFFFFFF00370000000000280008
:100A9600000000001D001B001900060010003600B3
:100AA600000000011000000000000000000104002A
:100AB6003400440000000000290064000A003D00E4
:100AC6000B003F000000520000002C000000000058
:100AD60065014000380045000000000000000000ED
:100AE6000500000011000000000050000000510049
:100AF6004F00000012004700130000000000000035
:100B060014001A001500080018000C000000000070
:100B160048000000000000000F0000003300310014
:100B26000001200004001600090007000D000E0059
:100B360000000000000000000001800026004600C2
:100B460027004300000000001E001F0021002000B7
:100B5600240025004E004D003E000000000000006D
:100B6600400000002F002A01080102002B00390076
:100B760017003C001C0030000000000000000000D0
:100B860000000000410000002D00420000000000AF
:100B960035003A0022003B0023002E004B004A019C
:100BA60001004C004900002300102300802600406D
:100BB60026008029000129000229000429000829AD
:100BC60000102900202900402900802F00012F0055
:100BD600022F00102F00202F00402F00807D0100E3
:080BE600020406080A0C0E00CF
:00000001FF
