:10000000E9C0000002C1000000C10000FEC0000005
:10001000FCC00000FAC00000F8C00000F6C00000FC
:10002000F4C00000F2C00000F0C00000D7C2000021
:1000300049C30000EAC00000E8C00000E6C00000BC
:10004000E4C00000E2C00000E0C0000058C10000B1
:10005000DCC00000DAC00000D8C00000D6C000003C
:10006000D4C00000D2C00000D0C00000CEC000004C
:10007000CCC0000000010000BB001200020000CD57
:10008000003B0022000008013F00210000DF0009C2
:100090000022010047011500210100F800090003BA
:1000A00000005C01040103090460014E020309041D
:1000B000B00122000001C10601C1261201000200A8
:1000C000000020C0167D0400010102000109023B6E
:1000D00000020100C032090400000103010100090F
:1000E0002111010001223F000705830308000109D7
:1000F0000401000103000000092111010001221583
:10010000000705840320000105010906A10175010E
:100110009508050719E029E71500250181029501D9
:1001200075088103950575010508190129059102D6
:100130009501750391039506750815002568050757
:10014000190029688100C00631FF0974A1537508A0
:10015000150026FF00952009758102C004030904DB
:100160004E03420061007400680072006F006F006F
:100170006D0020004500700069007000680061009B
:100180006E006900650073002C0020007300690098
:100190006D0070006C0065005F006B006500790009
:1001A00062006F0061007200640020002D000000FA
:1001B0002203460069006C0063006F0020004D00C0
:1001C00061006A006500730074006F0075006300D1
:1001D0006800000011241FBECFEFD4E0DEBFCDBF0A
:1001E00012E0A0E0B1E0EAE4FAE002C005900D926E
:1001F000A435B107D9F713E0A4E5B2E001C01D9220
:10020000A338B107E1F70CD11EC4FACECF93DF9328
:10021000A0E0B1E0C7E5D2E00BC0F0E0EE0FFF1FB9
:10022000E95FFE4F8181899381E0A630B80749F0EC
:10023000ED91EF3F91F780E0899381E0A630B80718
:10024000B9F78091550280935D02DF91CF9180C113
:10025000282F30E0220F331FF901ED59FD4F91E0B7
:100260009083F901E95FFE4F90819130B9F0909150
:1002700004019093050190910301909304019091E2
:1002800002019093030190910101909302019091DA
:1002900000019093010180930001B8CF8091550235
:1002A0009181892B80935502B1CF282F30E0220F06
:1002B000331FF901ED59FD4F1082F901E95FFE4F3F
:1002C00090819130A1F0E0E0F1E090E021912817D9
:1002D00021F09F5F9630D1F799CFE92FF0E0E05001
:1002E000FF4F818180839F5F9630B9F7F5CF918171
:1002F00090958091550289238093550287CF1F9254
:100300000F920FB60F921124BF92CF92DF92EF920D
:10031000FF920F931F932F933F934F935F936F938E
:100320007F938F939F93AF93BF93CF93DF93EF937D
:10033000FF93EFD0C12CB12C8B2D75D0F12C0AC0BE
:10034000803819F1CD59DD4F880F8983F394F8E097
:10035000FF1671F1EF2CEC0CCE2DD0E0CC0FDD1F91
:100360008E010D591D4FF801D1808F2D6ED08D2932
:10037000F80181838F3721F790819111E3CF8E2D82
:1003800067DFF80181818038E9F68E010D591D4F34
:10039000F80190819923B1F28E2D87DFF8018181D8
:1003A000CD59DD4F880F8983F394F8E0FF12D2CF47
:1003B000CF0EB39480E9C812BFCF43D080915602CC
:1003C00055D0A1D0FF91EF91DF91CF91BF91AF9127
:1003D0009F918F917F916F915F914F913F912F915D
:1003E0001F910F91FF90EF90DF90CF90BF900F90F3
:1003F0000FBE0F901F90189592D0A7D08823E9F3D5
:1004000058D010925502E4E6F2E0DF0111971C92F9
:100410001082329683E0E438F807B9F778940895AB
:10042000EBDF71D0FFCF9BB1E82FF0E0EF5BFD4F2A
:1004300098788081982B9BB985E08A95F1F7000028
:1004400008958BB187678BB9089590E0FC01EE0F9A
:10045000FF1FE80FF91FE95DFD4FA081B1819C915D
:100460008281982381E009F080E0089545B190E011
:10047000809590959C010024369527950794369594
:1004800027950794322F202D20784F77422B45B99E
:1004900080FD459A80FF459828B182959295907F7E
:1004A0009827807F9827807499272F7B282B28B93D
:1004B0000895E1E6F0E080E88083108285B78068E7
:1004C00085BF85B7806885BF8AB187678AB98BB1D8
:1004D00088788BB987B18B7787B988B1846888B9F8
:1004E00084B1817884B985B18E6785B9279A87B13F
:1004F000806687B984B5826084BD85B5856085BD19
:1005000080E187BD0895EEE6F0E08081826080831F
:100510000895EEE6F0E080818D7F8083089510924B
:10052000630080EA8093D80086E089BD09B400FEAC
:10053000FDCF80E88093D8001092E00010925F0217
:100540008CE08093E2007894089580915F02089592
:1005500080915F02882309F43FC08FB7F89493E03D
:100560009093E9002091E4002E5C9091E80095FDC5
:100570001CC08FBF80915F02882371F18091E400DD
:10058000821751F133E009C08FBF80915F02882349
:1005900019F18091E4008217F9F08FB7F894309345
:1005A000E9009091E80095FFEFCF90915D02909364
:1005B000F1001092F100E7E5F2E091919093F100E3
:1005C00092E0ED35F907C9F79AE39093E8001092AD
:1005D00060028FBF80E008958FEF08951F920F9201
:1005E0000FB60F9211248F939F93EF93FF938091F7
:1005F000E1001092E10083FF0FC01092E90091E04A
:100600009093EB001092EC0092E29093ED0098E052
:100610009093F00010925F0282FF36C080915F02DB
:10062000882391F180915E028823A9F08150809304
:100630005E02811110C084E08093E9008091E8009F
:1006400085FF06C01092F1008091E80085FDFACF89
:100650008AE38093E80090913F029923A9F080916A
:1006600062028F5F80936202837071F483E08093F3
:10067000E9008091E80085FF07C0809160028F5FEC
:1006800080936002891749F0FF91EF919F918F91BC
:100690000F900FBE0F901F901895109260028091DE
:1006A0005D028093F1001092F100E7E5F2E08191A4
:1006B0008093F10082E0ED35F807C9F78AE3809373
:1006C000E800E2CF1F920F920FB60F9211242F93E2
:1006D0003F934F935F936F937F938F939F93AF93CA
:1006E000BF93CF93EF93FF931092E9008091E800BE
:1006F00083FF3CC0F091F100E091F1002091F10006
:100700003091F100932F80E0AC01422B2091F10059
:100710003091F100932F80E0BC01622B2091F10019
:100720003091F100932F80E0DC01A22B82EF8093C7
:10073000E800E63081F1E53009F4BEC0E93009F4A3
:1007400072C0E83009F498C0E111C1C08091E8009E
:1007500080FFFCCFF23809F440C180E08093F100C3
:100760001092F1008EEF8093E80003C081E2809345
:10077000EB00FF91EF91CF91BF91AF919F918F913E
:100780007F916F915F914F913F912F910F900FBE8D
:100790000F901F901895C9E084E790E003C007967A
:1007A000C15021F3FC012591349142175307B9F749
:1007B000FC013296259134916217730781F7FC0191
:1007C0003496459154919A01FC0136965491AF3F6D
:1007D000B10511F008F0BAC0A51708F4B5C07EEF56
:1007E0009091E800492F4570D9F392FDC2CF652F53
:1007F000513208F45CC060E2C901462FFC01019649
:10080000E491E093F1004150C9F7862F815090E0C8
:100810000196280F391F561B7093E8005111E0CF45
:100820006032F1F2A6CFF1112AC040935F028EEF41
:100830008093E80041E083EB90E04093E9009C0165
:100840002F5F3F4FFC0154915093EB00552309F467
:10085000C2C0F90124912093EC00FC01329603966A
:10086000E491E093ED004F5F453039F78EE18093DE
:10087000EA001092EA007DCFF03809F459C0611502
:10088000710591F5F13A09F473C0F13209F06ECFB8
:10089000E93009F45EC0EA3009F4CDC0EB3009F06C
:1008A00065CF409340028EEF8093E80062CF5111F4
:1008B000A3CF7093E8005DCF8EEF8093E800809126
:1008C000E80080FFFCCF40684093E30052CFE13066
:1008D00011F0E330A1F6F23091F6452B09F48CC00B
:1008E0006115710509F442CF6130710509F03ECF01
:1008F000E13009F03BCFF13A09F038CF2EEF80918B
:10090000E800982F9570D9F382FD33CF9A2FA1324A
:1009100008F46DC090E2892F1092F1008150E1F748
:10092000A91B2093E800A111EACF903241F321CF17
:100930008091E80080FFFCCF80915F028093F100FE
:100940008EEF8093E80015CF5A2F49CFAFEFB0E07C
:1009500043CF8091E80082FFFCCF8091F10080932B
:1009600056028BEF8093E8008EEF8093E80001CF72
:10097000E13089F0E23019F1E33009F0F7CE8091EF
:10098000E80080FFFCCF809140028093F1008EEF61
:100990008093E800EECE8091E80080FFFCCF80914C
:1009A0005D028093F1001092F100E7E5F2E08191A1
:1009B0008093F10082E0ED35F807C9F774CF80919C
:1009C000E80080FFFCCF80913F028093F1008EEF22
:1009D0008093E800CECEC90146CF6093E9008091B4
:1009E000EB0085FB882780F91092E900B7CEA111B2
:1009F00092CF2093E800BDCE9B012F773327822F23
:100A00008150843008F06CCF8EEF8093E800209303
:100A1000E900E33009F4AACE89E18093EB0081E09C
:100A200090E0022E01C0880F0A94EAF78093EA0052
:100A30001092EA009ECE50933F02109260028EEF19
:0A0A40008093E80096CEF894FFCFF3
:100A4A00FFFFFFFFFFFFFF00040004000400040093
:100A5A000400040004000400050005000500050068
:100A6A000500050005000500060006000600060050
:100A7A000600060006000600070007000700070038
:100A8A000700070007000700080008000800080020
:100A9A000800080008000800090009000900090008
:100AAA0009000900090009000A000A000A000A00F0
:100ABA000A000A000A000A000B000B000B000B00D8
:100ACA000B000B000B000B000C000C000C000C00C0
:100ADA000C000C000C000C000D000D000D000D00A8
:100AEA000D000D000D000D000E000E000E000E0090
:100AFA000E000E000E000E000F000F000F000F0078
:100B0A000F000F000F000F0010001000100010005F
:100B1A001000100010001000110011001100110047
:100B2A00110011001100110012001200120012002F
:100B3A001200120012001200130013001300130017
:100B4A0013001300130013001400140014001400FF
:100B5A0014001400140014001500150015001500E7
:100B6A001500150015001526000426008023000232
:100B7A002300042300082300102300202300407DC3
:100B8A0001031323334353637307174454647445AF
:040B9A007546560046
:00000001FF
