:10000000FBC0000014C1000012C1000010C10000BC
:100010000EC100000CC100000AC1000008C10000B0
:1000200006C1000004C1000002C10000DBC20000E4
:1000300052C30000FCC00000FAC00000F8C000007D
:10004000F6C00000F4C00000F2C000006DC1000066
:10005000EEC00000ECC00000EAC00000E8C00000F4
:10006000E6C00000E4C00000E2C00000E0C0000004
:10007000DEC00000DCC00000DAC00000D8C0000014
:10008000D6C00000D4C00000D2C00000D0C0000024
:10009000CEC00000CCC0000000010000DF00120054
:1000A000020000F1003B002200002C013F00210073
:1000B00000030109002201006B0115002101001C51
:1000C0000109000300008001040103090484014EBA
:1000D00002030904D40122000001C10601C1261255
:1000E00001000200000020C0167D04000101020092
:1000F0000109023B00020100C032090400000103B3
:10010000010100092111010001223F0007058303BD
:100110000800010904010001030000000921110188
:1001200000012215000705840320000105010906CE
:10013000A10175019508050719E029E715002501BA
:10014000810295017508810395057501050819015E
:10015000290591029501750391039506750815000F
:1001600025680507190029688100C00631FF097458
:10017000A1537508150026FF00952009758102C05E
:10018000040309044E034200610074006800720019
:100190006F006F006D002000450070006900700066
:1001A000680061006E006900650073002C0020008B
:1001B000730069006D0070006C0065005F006B00EB
:1001C0006500790062006F00610072006400200029
:1001D0002D0000002203460069006C0063006F00E0
:1001E00020004D0061006A006500730074006F001C
:1001F000750063006800000011241FBECFEFD4E03B
:10020000DEBFCDBF12E0A0E0B1E0E4E7FAE002C05B
:1002100005900D92A435B107D9F713E0A4E5B2E03B
:1002200001C01D92A338B107E1F707D121C4E8CE80
:10023000CF93DF93A0E2B2E0C7E5D2E00BC0F0E0DD
:10024000EE0FFF1FE050FF4F8181899382E0A632BD
:10025000B80749F0ED91EF3F91F780E0899382E094
:10026000A632B807B9F7809154028093560272D132
:10027000DF91CF910895282F30E0220F331FF9012D
:10028000ED59FD4F91E09083F901E050FF4F9081CF
:100290009130B9F09091240290932502909123021D
:1002A0009093240290912202909323029091210234
:1002B0009093220290912002909321028093200239
:1002C000B7CF809154029181892B80935402B0CF93
:1002D000282F30E0220F331FF901ED59FD4F108216
:1002E000F901E050FF4F9081913051F0E0E2F2E0EF
:1002F00090E02191281761F09F5F9630D1F798CF59
:10030000918190958091540289238093540290CFDB
:100310009630A8F7E92FF0E0E05EFD4F8181808301
:100320009F5F9630B9F784CF1F920F920FB60F924E
:100330001124BF92CF92DF92EF92FF920F931F93FF
:100340002F933F934F935F936F937F938F939F93DD
:10035000AF93BF93CF93DF93EF93FF93DCD0BB2496
:10036000CC248C2D6DD0EB2CFF240BC0803811F1E8
:10037000CD59DD4F880F8983F394E394FF2DF83036
:1003800029F1CE2DD0E0CC0FDD1F8E010D591D4F70
:10039000F801D1808F2D66D08D29F80181838F37A8
:1003A00029F79081992321F78E2D65DFF80181814E
:1003B0008038F1F68E010D591D4FF8019081992377
:1003C000B9F28E2D85DFF8018181D2CF88E0B80E99
:1003D000C394EC2DE23129F641D080915D0253D0D7
:1003E00094D0FF91EF91DF91CF91BF91AF919F9109
:1003F0008F917F916F915F914F913F912F911F91BD
:100400000F91FF90EF90DF90CF90BF900F900FBEB5
:100410000F901F90189585D09AD08823E9F34BD080
:1004200010925402E3E6F2E010821182329683E0E9
:10043000E338F807C9F778940895EDDF66D0FFCF69
:100440009BB1EFE3F2E0E80FF11D98788081982BE3
:100450009BB985E08A95F1F7000008958BB1876715
:100460008BB9089590E0FC01EE0FFF1FE80FF91F14
:10047000E95DFD4FA081B1819C918281982381E04B
:1004800009F080E0089525B190E0809590958295DF
:10049000880F807E982F90782F77922B95B928B16E
:1004A000982F90722F7D922B98B998B180749F7B72
:1004B000892B88B90895E1E6F0E080E88083108216
:1004C00085B7806885BF85B7806885BF8AB1876733
:1004D0008AB98BB188788BB987B18B7787B988B1A6
:1004E000846888B984B1817884B985B18E6785B90B
:1004F000279A87B1806687B984B5826084BD85B547
:10050000856085BD80E187BD0895EEE6F0E08081DD
:10051000826080830895EEE6F0E080818D7F8083A5
:1005200008951092630080EA8093D80086E089BD28
:1005300009B400FEFDCF80E88093D8001092E0005F
:1005400010925E028CE08093E2007894089580918E
:100550005E02089580915E02882309F43FC08FB740
:10056000F89493E09093E9002091E4009091E800E2
:1005700095FD1DC08FBF80915E02882379F12E5CAE
:100580008091E400821751F133E009C08FBF809160
:100590005E02882319F18091E400821709F18FB778
:1005A000F8943093E9009091E80095FFEFCF909197
:1005B00056029093F1001092F100E7E5F2E091917C
:1005C0009093F10092E0ED35F907C9F79AE3909323
:1005D000E80010925F028FBF80E008958FEF0895CA
:1005E0008FEF08951F920F920FB60F9211242F9341
:1005F0008F939F93EF93FF938091E1001092E1001E
:1006000083FF0FC01092E90091E09093EB001092ED
:10061000EC0092E29093ED0098E09093F00010923D
:100620005E0282FF39C080915E028823A9F1809129
:1006300060028823A9F0815080936002882381F4AE
:1006400084E08093E9008091E80085FF06C0109265
:10065000F1008091E80085FDFACF8AE38093E800FD
:10066000209151022223C1F0809161028F5F80931B
:10067000610290E083709070009771F483E0809342
:10068000E9008091E80085FF07C080915F028F5FDD
:1006900080935F02281751F0FF91EF919F918F9106
:1006A0002F910F900FBE0F901F90189510925F0220
:1006B000809156028093F1001092F100E7E5F2E09C
:1006C00081918093F10082E0ED35F807C9F78AE364
:1006D0008093E800E1CF1F920F920FB60F92112482
:1006E0002F933F934F935F936F937F938F939F933A
:1006F000AF93BF93CF93DF93EF93FF931092E900F3
:100700008091E80083FF40C0E091F1006091F1002A
:100710002091F10030E04091F100942F80E0282BEF
:10072000392B4091F10050E07091F100972F80E05B
:10073000482B592BA091F100B0E07091F100972F58
:1007400080E0A82BB92B82EF8093E800663091F10E
:10075000653009F4F0C0693009F481C0683009F4EB
:10076000F5C0662309F0A4C08091E80080FFFCCFAB
:10077000E23809F468C180E08093F1001092F10042
:100780008EEF8093E80003C081E28093EB00FF913D
:10079000EF91DF91CF91BF91AF919F918F917F9119
:1007A0006F915F914F913F912F910F900FBE0F90DE
:1007B0001F9018958FE990E0BC016550704007C00C
:1007C0000796695F7F4FF0E08E3D9F07E9F2FC01DD
:1007D0003797C591D4912C173D0791F7FB01C5912F
:1007E000D4914C175D0761F76E5F7F4FFB018591D8
:1007F0009491282F392F6E5F7F4FFB016491AF3F9B
:10080000B10511F008F0B3C0A61708F4AEC07EEF32
:100810008091E80090E0AC014570507041155105A1
:10082000B9F382FDB4CF562F613208F45EC050E2B6
:10083000C901452FFC010196E491E093F10041507C
:10084000C9F7852F815090E00196280F391F651B4D
:100850007093E8006623E1F65032D1F298CFEE2390
:1008600059F520935E028EEF8093E80041E087ED1A
:1008700090E04093E900FC010196E491E093EB00E5
:10088000EE2369F09C012F5F3F4FFC018491809320
:10089000EC00C9010196F90124912093ED004F5F0E
:1008A000453039F78EE18093EA001092EA006FCF6D
:1008B0006130F9F06330E9F04115510509F09CC051
:1008C000E13A09F466C0E13209F05ECF693009F41B
:1008D00051C06A3009F4C4C06B3009F055CF209381
:1008E00052028EEF8093E80052CF662309F0A0CF2A
:1008F000AECFE23009F721153105F1F6742F7F777D
:10090000872F81508430C0F68EEF8093E80070937B
:10091000E900633009F438CF89E18093EB0081E08E
:1009200090E002C0880F991F7A95E2F78093EA0061
:100930001092EA002CCF8EEF8093E8008091E800BF
:1009400080FFFCCF20682093E30021CFE03809F03E
:10095000B3CF8091E80080FFFCCF80915E0280934E
:10096000F1008EEF8093E80012CF6A2F50CFAFEFE7
:10097000B0E04ACF8091E80082FFFCCF8091F10087
:1009800080935D028BEF8093E8008EEF8093E80008
:10099000FECE613089F0623019F1633009F0F4CE97
:1009A0008091E80080FFFCCF809152028093F1009B
:1009B0008EEF8093E800EBCE8091E80080FFFCCFC3
:1009C000809156028093F1001092F100E7E5F2E089
:1009D00081918093F10082E0ED35F807C9F781CF6E
:1009E0008091E80080FFFCCF809151028093F1005C
:1009F0008EEF8093E800CBCE4130510509F0C4CE94
:100A0000613009F0C1CEE13A09F0BECE4EEF8091DF
:100A1000E80090E09C012570307021153105B9F394
:100A200082FDB5CE9A2FA132C0F090E2892F1092AC
:100A3000F1008150E1F7A91B4093E800AA2339F7A0
:100A4000903229F3A4CE4093E9009091EB0081E02D
:100A500095FF80E01092E9008FCEAA2339F7EBCF03
:100A60003093510210925F028EEF8093E8008FCE98
:040A7000F894FFCF28
:100A740000000000000001800000000000000000F1
:100A8400000000000102012000000000000000003E
:100A94000050000000000058004A004D005200576A
:100AA4000000000001080000000000000000000039
:100AB40000560055005E005B004B004E0063006171
:100AC40000380000002F0033002D002700340013ED
:100AD4000000001D002B00040035001E0029001436
:100AE4000000001B00390016003A001F0064001AC1
:100AF40000000006003C0007003B0020003D000809
:100B0400000500190017000900220021000A001541
:100B140000110010001C000D00230024000B00181D
:100B2400000000360030000E002E0025003F000CAF
:100B3400006500370040000F00410026000000124D
:100B440001400000000000000000004601040047CE
:100B540000450028002A0031004200430044000000
:100B640000000110000000000101003E00000048E8
:100B740000510053005C0059004C0000002C005F41
:100B8400004F0054005D005A0049000000620060FC
:100B9400FFFFFFFFFFFFFF260004230002230004E2
:100BA4002300082600802300102300202300406433
:100BB400544417077363534333231303564675454D
:040BC400747D01003B
:00000001FF
